:1000000012C02CC02BC02AC029C028C027C026C0BF
:1000100025C034C323C022C021C020C01FC01EC0C1
:100020001DC01CC01BC011241FBECFE5D4E0DEBF25
:10003000CDBF10E0A0E6B0E0EAE8F7E002C005902E
:100040000D92AA36B107D9F710E0AAE6B0E001C0D8
:100050001D92A13CB107E1F70DD095C3D1CF81E04E
:1000600088BB8FE287BB15BA14BA12BA82EF81BB84
:1000700015BE0895EF92FF920F931F93CF93DF93D6
:1000800081E088BB8FE287BB15BA14BA12BA82EF3F
:1000900081BB15BED0D24DD192D05AD18EE590E021
:1000A0007BD010927200789400ED17E022E3E22EEC
:1000B0009BE3F92E10927D0007C080917D0088237C
:1000C00029F4C8010197F1F75F9BF7CF80917D007C
:1000D000882329F010927D00E092720003C036D18F
:1000E0008093720080917200833309F447C0843397
:1000F00030F4813339F1823309F04AC03CC0843393
:1001000009F43FC0853309F043C03FC0862F820FFA
:10011000E199FECF90E09FBB8EBBE09A8DB38193B7
:10012000C8010197F1F72F5F3F4F2330310571F779
:100130004F5F5F4F6D5F6C3341F4F0927100C1E827
:10014000D0E00DC040E050E060E0FA01EE0FFF1F8C
:10015000E40FF51FEF57FF4F20E030E0D7CF888145
:10016000F1D08981EFD08A81EDD0239680E0CD3B1C
:10017000D807A9F70DC03DD278D10AC08EE590E02E
:1001800002C088E090E008D003C051D085E028D0BC
:10019000C8010197F1F78ECF2BEF3FEFAC01429FE3
:1001A000C001439F900D529F900D112482519D4F8D
:1001B0009BBD8ABD089580E58DB91EB80895109243
:1001C0007500109274001092760080E58DB91EB80B
:1001D00008958FB108958FB9779BFECF8FB10895A1
:1001E000C09880916F008FB9779BFECF8FB18091BF
:1001F0006E008FB9779BFECF8FB180916D008FB964
:10020000779BFECF8FB180916C008FB9779BFECF2B
:100210008FB180916B008FB9779BFECF8FB18091AA
:100220006A008FB9779BFECF8FB1C09A08958091F5
:1002300076008F5F80937600809176008436B0F0F0
:1002400010927600809174009091750001969093C1
:100250007500809374008091740090917500885EA1
:10026000934020F0109275001092740008950F933F
:100270001F938091BE006AE053D200E610E0F801BF
:10028000E90FF11D808180936F008091740090913F
:10029000750064E670E050D2FB01E00FF11F808131
:1002A0002EE630E0F9018083809174009091750012
:1002B0006AE070E041D2CB016AE070E03DD2F80123
:1002C000E80FF91F8081F90182939F0180917400EA
:1002D000909175006AE070E02FD2F801E80FF91FE5
:1002E00080818F77F90182939F01809176006AE087
:1002F00017D2F801E80FF11D8081F90182939F0167
:10030000809176000DD2090F111DF8018081F9014D
:1003100082931F910F910895C0988FEF80936F0083
:10032000EEE6F0E080838293829382938293C09A78
:1003300008951BB888E18AB986E880BD10BC83E3C4
:1003400089B908955D9BFECF8CB908958CB108954D
:1003500010927B0008954091790040937A00409379
:10036000780080B38C70809379004817B9F480913D
:100370007C00841799F0242F30E090E082279327A7
:1003800082FF05C042FD03C081E080937B0023FD16
:1003900003C081E080937D0040937C0008958EE14E
:1003A0008093BD0088E090E0F7DE10927B0081E052
:1003B00080937E00089582E08093BD00ADDFF894C5
:1003C0008091650080936C0080936F00789480E149
:1003D00097E228EC30E0F9013197F1F70197D9F76E
:1003E000F8948091640080936C0080936F007894FF
:1003F00080E197E228EC30E0F9013197F1F70197BD
:10040000D9F7F8948091630080936C0080936F001B
:10041000789480E197E228EC30E0F9013197F1F728
:100420000197D9F7F8948091620080936C008093D3
:100430006F00789480E197E228EC30E0F901319781
:10044000F1F70197D9F7F8948091610080936C00DF
:1004500080936F00789480E197E228EC30E0F90116
:100460003197F1F70197D9F70895EF92FF921F9313
:10047000CF93DF938EE590E08FDE9DDF90DF28EC59
:10048000E22EF12CC8EBDBE01AE145C0C701019771
:10049000F1F780917B00882391F1D0938000C09385
:1004A0007F0010927B0080917E00813019F41092C1
:1004B0007E0005C08091BE008F5F8093BE0080915A
:1004C000700040DF812F8A95F1F78091BE003ADFFE
:1004D000812F8A95F1F78091740090917500892F92
:1004E00031DF812F8A95F1F780917400909175002A
:1004F00029DF812F8A95F1F78091760023DF5F9BBA
:100500000AC024DF803399F0893329F48091BE003A
:1005100081508093BE008091BE00833040F4809172
:10052000740090917500885E934008F4AFCF8AE024
:100530008093BD00A09170006A2F70E0409174001C
:10054000509175009B01220F331F260F371FF901B1
:10055000EF57FF4F8A2F880F880F852B808380915C
:100560007400909175008183409176004283E08110
:10057000E199FECF822F90E09FBB8EBBEDBB0FB603
:10058000F894E29AE19A0FBE80ED97E00197F1F7B7
:10059000FB01EE0FFF1FE60FF71FEF57FF4F3181F3
:1005A000E199FECF2F5F822F90E09FBB8EBB3DBBBA
:1005B0000FB6F894E29AE19A0FBE80ED97E00197AA
:1005C000F1F72F5F20937100E199FECF822F90E029
:1005D0009FBB8EBB4DBB0FB6F894E29AE19A0FBE5B
:1005E000AF5FA0937000DF91CF911F91FF90EF90CC
:1005F0000895AEDE84E18093BD001092BE0010929B
:100600007500109274001092760010928000109283
:100610007F0010927B000895E199FECF9FBB8EBBB7
:100620006DBBE29AE19A0895E199FECF9FBB8EBB24
:10063000E09A8DB3089583E083BF12BE80EA8FBD38
:1006400082E18EBD1DBC1CBC8FE187BD80E486BDF0
:100650001BBC1ABC19BC18BC12BC80E685BD14BCFE
:1006600013BC81E089BF1092C0001092BF001092AD
:100670007500109274001092760008951F920F92E8
:100680000FB60F9211242F933F934F935F936F9365
:100690007F938F939F93AF93BF93EF93FF9387E2E3
:1006A00082BF8091C0008F5F8093C000863060F071
:1006B0001092C0008091BD008E3109F4B8DD8091A8
:1006C000BD00823009F0D3DD80917F0090918000E1
:1006D000892B51F080917F00909180000197909339
:1006E000800080937F0001C036DE8091BF0090E0E3
:1006F000019666E070E034D08093BF0071DDFF9119
:10070000EF91BF91AF919F918F917F916F915F9189
:100710004F913F912F910F900FBE0F901F90189502
:10072000991B79E004C0991F961708F0961B881F43
:100730007A95C9F780950895AA1BBB1B51E107C0A4
:10074000AA1FBB1FA617B70710F0A61BB70B881F61
:10075000991F5A95A9F780959095BC01CD010895F0
:1007600097FB092E07260AD077FD04D0E5DF06D0D7
:1007700000201AF4709561957F4F0895F6F79095D3
:0A07800081959F4F0895F894FFCF74
:0A078A00C0F9A4B0999282F88090A3
:00000001FF
